{"abi":[{"type":"function","name":"addLiquidity","inputs":[{"name":"tokenA","type":"address","internalType":"address"},{"name":"tokenB","type":"address","internalType":"address"},{"name":"amountA","type":"uint256","internalType":"uint256"},{"name":"amountB","type":"uint256","internalType":"uint256"}],"outputs":[{"name":"sharesMinted","type":"uint256","internalType":"uint256"}],"stateMutability":"nonpayable"},{"type":"function","name":"pools","inputs":[{"name":"","type":"bytes32","internalType":"bytes32"}],"outputs":[{"name":"reserveA","type":"uint256","internalType":"uint256"},{"name":"reserveB","type":"uint256","internalType":"uint256"},{"name":"totalShares","type":"uint256","internalType":"uint256"}],"stateMutability":"view"},{"type":"function","name":"removeLiquidity","inputs":[{"name":"tokenA","type":"address","internalType":"address"},{"name":"tokenB","type":"address","internalType":"address"},{"name":"sharesToBurn","type":"uint256","internalType":"uint256"}],"outputs":[{"name":"amountA","type":"uint256","internalType":"uint256"},{"name":"amountB","type":"uint256","internalType":"uint256"}],"stateMutability":"nonpayable"},{"type":"function","name":"shares","inputs":[{"name":"","type":"bytes32","internalType":"bytes32"},{"name":"","type":"address","internalType":"address"}],"outputs":[{"name":"","type":"uint256","internalType":"uint256"}],"stateMutability":"view"},{"type":"function","name":"swap","inputs":[{"name":"tokenIn","type":"address","internalType":"address"},{"name":"tokenOut","type":"address","internalType":"address"},{"name":"amountIn","type":"uint256","internalType":"uint256"},{"name":"amountOutMin","type":"uint256","internalType":"uint256"}],"outputs":[{"name":"amountOut","type":"uint256","internalType":"uint256"}],"stateMutability":"nonpayable"},{"type":"event","name":"LiquidityAdded","inputs":[{"name":"provider","type":"address","indexed":true,"internalType":"address"},{"name":"tokenA","type":"address","indexed":true,"internalType":"address"},{"name":"tokenB","type":"address","indexed":true,"internalType":"address"},{"name":"amountA","type":"uint256","indexed":false,"internalType":"uint256"},{"name":"amountB","type":"uint256","indexed":false,"internalType":"uint256"},{"name":"sharesMinted","type":"uint256","indexed":false,"internalType":"uint256"}],"anonymous":false},{"type":"event","name":"LiquidityRemoved","inputs":[{"name":"provider","type":"address","indexed":true,"internalType":"address"},{"name":"tokenA","type":"address","indexed":true,"internalType":"address"},{"name":"tokenB","type":"address","indexed":true,"internalType":"address"},{"name":"amountA","type":"uint256","indexed":false,"internalType":"uint256"},{"name":"amountB","type":"uint256","indexed":false,"internalType":"uint256"},{"name":"sharesBurned","type":"uint256","indexed":false,"internalType":"uint256"}],"anonymous":false},{"type":"event","name":"Swap","inputs":[{"name":"trader","type":"address","indexed":true,"internalType":"address"},{"name":"tokenIn","type":"address","indexed":true,"internalType":"address"},{"name":"tokenOut","type":"address","indexed":true,"internalType":"address"},{"name":"amountIn","type":"uint256","indexed":false,"internalType":"uint256"},{"name":"amountOut","type":"uint256","indexed":false,"internalType":"uint256"}],"anonymous":false},{"type":"error","name":"ReentrancyGuardReentrantCall","inputs":[]}],"bytecode":{"object":"0x6080604052348015600e575f5ffd5b5060016029601f603360201b60201c565b605c60201b60201c565b5f01819055506065565b5f7f9b779b17422d0df92223018b32b4d1fa46e071723d6817e2486d003becc55f005f1b905090565b5f819050919050565b611d23806100725f395ff3fe608060405234801561000f575f5ffd5b5060043610610055575f3560e01c8063b5217bb414610059578063b84e9bb51461008b578063cf6c62ea146100bb578063d752fab2146100eb578063fe0291561461011c575b5f5ffd5b610073600480360381019061006e91906113cb565b61014c565b6040516100829392919061140e565b60405180910390f35b6100a560048036038101906100a0919061149d565b610171565b6040516100b291906114db565b60405180910390f35b6100d560048036038101906100d0919061151e565b610191565b6040516100e291906114db565b60405180910390f35b61010560048036038101906101009190611582565b6106fa565b6040516101139291906115d2565b60405180910390f35b6101366004803603810190610131919061151e565b610c91565b60405161014391906114db565b60405180910390f35b5f602052805f5260405f205f91509050805f0154908060010154908060020154905083565b6001602052815f5260405f20602052805f5260405f205f91509150505481565b5f61019a61118d565b5f73ffffffffffffffffffffffffffffffffffffffff168573ffffffffffffffffffffffffffffffffffffffff161415801561020257505f73ffffffffffffffffffffffffffffffffffffffff168473ffffffffffffffffffffffffffffffffffffffff1614155b610241576040517f08c379a000000000000000000000000000000000000000000000000000000000815260040161023890611653565b60405180910390fd5b8373ffffffffffffffffffffffffffffffffffffffff168573ffffffffffffffffffffffffffffffffffffffff16036102af576040517f08c379a00000000000000000000000000000000000000000000000000000000081526004016102a6906116bb565b60405180910390fd5b5f831180156102bd57505f82115b6102fc576040517f08c379a00000000000000000000000000000000000000000000000000000000081526004016102f390611723565b60405180910390fd5b5f5f61030887876111af565b915091505f5f8373ffffffffffffffffffffffffffffffffffffffff168973ffffffffffffffffffffffffffffffffffffffff161461034857858761034b565b86865b915091505f8484604051602001610363929190611786565b6040516020818303038152906040528051906020012090505f5f5f8381526020019081526020015f2090505f8490505f8490505f8360020154036103bc576103b581836103b091906117de565b6111fd565b9850610470565b5f835f01548460010154886103d191906117de565b6103db919061184c565b90508581116103ef57869250809150610418565b5f8460010154855f01548861040491906117de565b61040e919061184c565b9050809350869250505b5f845f015485600201548561042d91906117de565b610437919061184c565b90505f856001015486600201548561044f91906117de565b610459919061184c565b9050808210610468578061046a565b815b9b505050505b5f89116104b2576040517f08c379a00000000000000000000000000000000000000000000000000000000081526004016104a9906118c6565b60405180910390fd5b5f3390508873ffffffffffffffffffffffffffffffffffffffff166323b872dd8230866040518463ffffffff1660e01b81526004016104f3939291906118f3565b6020604051808303815f875af115801561050f573d5f5f3e3d5ffd5b505050506040513d601f19601f82011682018060405250810190610533919061195d565b508773ffffffffffffffffffffffffffffffffffffffff166323b872dd8230856040518463ffffffff1660e01b8152600401610571939291906118f3565b6020604051808303815f875af115801561058d573d5f5f3e3d5ffd5b505050506040513d601f19601f820116820180604052508101906105b1919061195d565b5082845f015f8282546105c49190611988565b9250508190555081846001015f8282546105de9190611988565b9250508190555089846002015f8282546105f89190611988565b925050819055508960015f8781526020019081526020015f205f8373ffffffffffffffffffffffffffffffffffffffff1673ffffffffffffffffffffffffffffffffffffffff1681526020019081526020015f205f82825461065a9190611988565b925050819055508773ffffffffffffffffffffffffffffffffffffffff168973ffffffffffffffffffffffffffffffffffffffff168273ffffffffffffffffffffffffffffffffffffffff167f43c967b388d3a4ccad3f7ab80167852e322e5a3fde9893f530252281b2ae8b7086868f6040516106d99392919061140e565b60405180910390a45050505050505050506106f2611274565b949350505050565b5f5f61070461118d565b5f73ffffffffffffffffffffffffffffffffffffffff168573ffffffffffffffffffffffffffffffffffffffff161415801561076c57505f73ffffffffffffffffffffffffffffffffffffffff168473ffffffffffffffffffffffffffffffffffffffff1614155b6107ab576040517f08c379a00000000000000000000000000000000000000000000000000000000081526004016107a290611653565b60405180910390fd5b8373ffffffffffffffffffffffffffffffffffffffff168573ffffffffffffffffffffffffffffffffffffffff1603610819576040517f08c379a0000000000000000000000000000000000000000000000000000000008152600401610810906116bb565b60405180910390fd5b5f831161085b576040517f08c379a0000000000000000000000000000000000000000000000000000000008152600401610852906118c6565b60405180910390fd5b5f5f61086787876111af565b915091505f828260405160200161087f929190611786565b6040516020818303038152906040528051906020012090505f5f5f8381526020019081526020015f2090508660015f8481526020019081526020015f205f3373ffffffffffffffffffffffffffffffffffffffff1673ffffffffffffffffffffffffffffffffffffffff1681526020019081526020015f20541015610939576040517f08c379a000000000000000000000000000000000000000000000000000000000815260040161093090611a05565b60405180910390fd5b5f81600201541161097f576040517f08c379a000000000000000000000000000000000000000000000000000000000815260040161097690611a6d565b60405180910390fd5b5f8160020154825f01548961099491906117de565b61099e919061184c565b90505f826002015483600101548a6109b691906117de565b6109c0919061184c565b90505f821180156109d057505f81115b610a0f576040517f08c379a0000000000000000000000000000000000000000000000000000000008152600401610a0690611ad5565b60405180910390fd5b8860015f8681526020019081526020015f205f3373ffffffffffffffffffffffffffffffffffffffff1673ffffffffffffffffffffffffffffffffffffffff1681526020019081526020015f205f828254610a6a9190611af3565b9250508190555088836002015f828254610a849190611af3565b9250508190555081835f015f828254610a9d9190611af3565b9250508190555080836001015f828254610ab79190611af3565b925050819055508573ffffffffffffffffffffffffffffffffffffffff1663a9059cbb33846040518363ffffffff1660e01b8152600401610af9929190611b26565b6020604051808303815f875af1158015610b15573d5f5f3e3d5ffd5b505050506040513d601f19601f82011682018060405250810190610b39919061195d565b508473ffffffffffffffffffffffffffffffffffffffff1663a9059cbb33836040518363ffffffff1660e01b8152600401610b75929190611b26565b6020604051808303815f875af1158015610b91573d5f5f3e3d5ffd5b505050506040513d601f19601f82011682018060405250810190610bb5919061195d565b508573ffffffffffffffffffffffffffffffffffffffff168b73ffffffffffffffffffffffffffffffffffffffff1614610bf0578082610bf3565b81815b80985081995050508473ffffffffffffffffffffffffffffffffffffffff168673ffffffffffffffffffffffffffffffffffffffff163373ffffffffffffffffffffffffffffffffffffffff167fd765e08eef31c0983ecca03ecd166297ac485ecd5dd69e291c848f0a020333c185858e604051610c739392919061140e565b60405180910390a4505050505050610c89611274565b935093915050565b5f610c9a61118d565b5f73ffffffffffffffffffffffffffffffffffffffff168573ffffffffffffffffffffffffffffffffffffffff1614158015610d0257505f73ffffffffffffffffffffffffffffffffffffffff168473ffffffffffffffffffffffffffffffffffffffff1614155b610d41576040517f08c379a0000000000000000000000000000000000000000000000000000000008152600401610d3890611653565b60405180910390fd5b8373ffffffffffffffffffffffffffffffffffffffff168573ffffffffffffffffffffffffffffffffffffffff1603610daf576040517f08c379a0000000000000000000000000000000000000000000000000000000008152600401610da6906116bb565b60405180910390fd5b5f8311610df1576040517f08c379a0000000000000000000000000000000000000000000000000000000008152600401610de890611b97565b60405180910390fd5b5f610dfc868661128e565b90505f5f5f8381526020019081526020015f2090505f816002015411610e57576040517f08c379a0000000000000000000000000000000000000000000000000000000008152600401610e4e90611bff565b60405180910390fd5b5f610e6288886111af565b5090505f8173ffffffffffffffffffffffffffffffffffffffff168973ffffffffffffffffffffffffffffffffffffffff161490505f81610ea7578360010154610eac565b835f01545b90505f82610ebd57845f0154610ec3565b84600101545b90505f6103e58a610ed491906117de565b9050806103e884610ee591906117de565b610eef9190611988565b8282610efb91906117de565b610f05919061184c565b975088881015610f4a576040517f08c379a0000000000000000000000000000000000000000000000000000000008152600401610f4190611c67565b60405180910390fd5b818810610f8c576040517f08c379a0000000000000000000000000000000000000000000000000000000008152600401610f8390611ccf565b60405180910390fd5b8315610fca5789865f015f828254610fa49190611988565b9250508190555087866001015f828254610fbe9190611af3565b92505081905550610ffe565b89866001015f828254610fdd9190611988565b9250508190555087865f015f828254610ff69190611af3565b925050819055505b8b73ffffffffffffffffffffffffffffffffffffffff166323b872dd33308d6040518463ffffffff1660e01b815260040161103b939291906118f3565b6020604051808303815f875af1158015611057573d5f5f3e3d5ffd5b505050506040513d601f19601f8201168201806040525081019061107b919061195d565b508a73ffffffffffffffffffffffffffffffffffffffff1663a9059cbb338a6040518363ffffffff1660e01b81526004016110b7929190611b26565b6020604051808303815f875af11580156110d3573d5f5f3e3d5ffd5b505050506040513d601f19601f820116820180604052508101906110f7919061195d565b508a73ffffffffffffffffffffffffffffffffffffffff168c73ffffffffffffffffffffffffffffffffffffffff163373ffffffffffffffffffffffffffffffffffffffff167fcd3829a3813dc3cdd188fd3d01dcf3268c16be2fdd2dd21d0665418816e460628d8c60405161116e9291906115d2565b60405180910390a450505050505050611185611274565b949350505050565b611195611305565b60026111a76111a2611346565b61136f565b5f0181905550565b5f5f8273ffffffffffffffffffffffffffffffffffffffff168473ffffffffffffffffffffffffffffffffffffffff16106111eb5782846111ee565b83835b80925081935050509250929050565b5f6003821115611262578190505f600160028461121a919061184c565b6112249190611988565b90505b8181101561125c578091506002818285611241919061184c565b61124b9190611988565b611255919061184c565b9050611227565b5061126f565b5f821461126e57600190505b5b919050565b6001611286611281611346565b61136f565b5f0181905550565b5f5f5f8373ffffffffffffffffffffffffffffffffffffffff168573ffffffffffffffffffffffffffffffffffffffff16106112cb5783856112ce565b84845b9150915081816040516020016112e5929190611786565b604051602081830303815290604052805190602001209250505092915050565b61130d611378565b15611344576040517f3ee5aeb500000000000000000000000000000000000000000000000000000000815260040160405180910390fd5b565b5f7f9b779b17422d0df92223018b32b4d1fa46e071723d6817e2486d003becc55f005f1b905090565b5f819050919050565b5f600261138b611386611346565b61136f565b5f015414905090565b5f5ffd5b5f819050919050565b6113aa81611398565b81146113b4575f5ffd5b50565b5f813590506113c5816113a1565b92915050565b5f602082840312156113e0576113df611394565b5b5f6113ed848285016113b7565b91505092915050565b5f819050919050565b611408816113f6565b82525050565b5f6060820190506114215f8301866113ff565b61142e60208301856113ff565b61143b60408301846113ff565b949350505050565b5f73ffffffffffffffffffffffffffffffffffffffff82169050919050565b5f61146c82611443565b9050919050565b61147c81611462565b8114611486575f5ffd5b50565b5f8135905061149781611473565b92915050565b5f5f604083850312156114b3576114b2611394565b5b5f6114c0858286016113b7565b92505060206114d185828601611489565b9150509250929050565b5f6020820190506114ee5f8301846113ff565b92915050565b6114fd816113f6565b8114611507575f5ffd5b50565b5f81359050611518816114f4565b92915050565b5f5f5f5f6080858703121561153657611535611394565b5b5f61154387828801611489565b945050602061155487828801611489565b93505060406115658782880161150a565b92505060606115768782880161150a565b91505092959194509250565b5f5f5f6060848603121561159957611598611394565b5b5f6115a686828701611489565b93505060206115b786828701611489565b92505060406115c88682870161150a565b9150509250925092565b5f6040820190506115e55f8301856113ff565b6115f260208301846113ff565b9392505050565b5f82825260208201905092915050565b7f5a45524f5f4144445245535300000000000000000000000000000000000000005f82015250565b5f61163d600c836115f9565b915061164882611609565b602082019050919050565b5f6020820190508181035f83015261166a81611631565b9050919050565b7f4944454e544943414c5f544f4b454e53000000000000000000000000000000005f82015250565b5f6116a56010836115f9565b91506116b082611671565b602082019050919050565b5f6020820190508181035f8301526116d281611699565b9050919050565b7f5a45524f5f414d4f554e540000000000000000000000000000000000000000005f82015250565b5f61170d600b836115f9565b9150611718826116d9565b602082019050919050565b5f6020820190508181035f83015261173a81611701565b9050919050565b5f8160601b9050919050565b5f61175782611741565b9050919050565b5f6117688261174d565b9050919050565b61178061177b82611462565b61175e565b82525050565b5f611791828561176f565b6014820191506117a1828461176f565b6014820191508190509392505050565b7f4e487b71000000000000000000000000000000000000000000000000000000005f52601160045260245ffd5b5f6117e8826113f6565b91506117f3836113f6565b9250828202611801816113f6565b91508282048414831517611818576118176117b1565b5b5092915050565b7f4e487b71000000000000000000000000000000000000000000000000000000005f52601260045260245ffd5b5f611856826113f6565b9150611861836113f6565b9250826118715761187061181f565b5b828204905092915050565b7f5a45524f5f5348415245530000000000000000000000000000000000000000005f82015250565b5f6118b0600b836115f9565b91506118bb8261187c565b602082019050919050565b5f6020820190508181035f8301526118dd816118a4565b9050919050565b6118ed81611462565b82525050565b5f6060820190506119065f8301866118e4565b61191360208301856118e4565b61192060408301846113ff565b949350505050565b5f8115159050919050565b61193c81611928565b8114611946575f5ffd5b50565b5f8151905061195781611933565b92915050565b5f6020828403121561197257611971611394565b5b5f61197f84828501611949565b91505092915050565b5f611992826113f6565b915061199d836113f6565b92508282019050808211156119b5576119b46117b1565b5b92915050565b7f494e53554646494349454e545f534841524553000000000000000000000000005f82015250565b5f6119ef6013836115f9565b91506119fa826119bb565b602082019050919050565b5f6020820190508181035f830152611a1c816119e3565b9050919050565b7f454d5054595f504f4f4c000000000000000000000000000000000000000000005f82015250565b5f611a57600a836115f9565b9150611a6282611a23565b602082019050919050565b5f6020820190508181035f830152611a8481611a4b565b9050919050565b7f5a45524f5f4f55545055540000000000000000000000000000000000000000005f82015250565b5f611abf600b836115f9565b9150611aca82611a8b565b602082019050919050565b5f6020820190508181035f830152611aec81611ab3565b9050919050565b5f611afd826113f6565b9150611b08836113f6565b9250828203905081811115611b2057611b1f6117b1565b5b92915050565b5f604082019050611b395f8301856118e4565b611b4660208301846113ff565b9392505050565b7f5a45524f5f494e505554000000000000000000000000000000000000000000005f82015250565b5f611b81600a836115f9565b9150611b8c82611b4d565b602082019050919050565b5f6020820190508181035f830152611bae81611b75565b9050919050565b7f504f4f4c5f4e4f545f464f554e440000000000000000000000000000000000005f82015250565b5f611be9600e836115f9565b9150611bf482611bb5565b602082019050919050565b5f6020820190508181035f830152611c1681611bdd565b9050919050565b7f534c4950504147450000000000000000000000000000000000000000000000005f82015250565b5f611c516008836115f9565b9150611c5c82611c1d565b602082019050919050565b5f6020820190508181035f830152611c7e81611c45565b9050919050565b7f494e53554646494349454e545f4c4951554944495459000000000000000000005f82015250565b5f611cb96016836115f9565b9150611cc482611c85565b602082019050919050565b5f6020820190508181035f830152611ce681611cad565b905091905056fea26469706673582212204f9524b1df21be179d4f7a19819134789c7e897603b178e9779c24167feaa3e264736f6c634300081e0033","linkReferences":{}},"methodIdentifiers":{"addLiquidity(address,address,uint256,uint256)":"cf6c62ea","pools(bytes32)":"b5217bb4","removeLiquidity(address,address,uint256)":"d752fab2","shares(bytes32,address)":"b84e9bb5","swap(address,address,uint256,uint256)":"fe029156"},"id":21}